{
  "_format": "hh-sol-artifact-1",
  "contractName": "ParentPool",
  "sourceName": "contracts/ParentPool/ParentPool.sol",
  "abi": [
    {
      "inputs": [
        {
          "internalType": "address",
          "name": "liquidityToken",
          "type": "address"
        },
        {
          "internalType": "uint8",
          "name": "liquidityTokenDecimals",
          "type": "uint8"
        },
        {
          "internalType": "address",
          "name": "lpToken",
          "type": "address"
        },
        {
          "internalType": "address",
          "name": "conceroRouter",
          "type": "address"
        },
        {
          "internalType": "uint24",
          "name": "chainSelector",
          "type": "uint24"
        },
        {
          "internalType": "address",
          "name": "iouToken",
          "type": "address"
        }
      ],
      "stateMutability": "nonpayable",
      "type": "constructor"
    },
    {
      "inputs": [],
      "name": "ConceroSendFailed",
      "type": "error"
    },
    {
      "inputs": [
        {
          "internalType": "bytes",
          "name": "response",
          "type": "bytes"
        }
      ],
      "name": "DelegateCallFailed",
      "type": "error"
    },
    {
      "inputs": [],
      "name": "GetMessageFeeFailed",
      "type": "error"
    },
    {
      "inputs": [
        {
          "internalType": "uint256",
          "name": "provided",
          "type": "uint256"
        },
        {
          "internalType": "uint256",
          "name": "required",
          "type": "uint256"
        }
      ],
      "name": "InsufficientFee",
      "type": "error"
    },
    {
      "inputs": [],
      "name": "InvalidAmount",
      "type": "error"
    },
    {
      "inputs": [
        {
          "internalType": "enum IConceroClientErrors.MessageConfigErrorType",
          "name": "error",
          "type": "uint8"
        }
      ],
      "name": "InvalidClientMessageConfig",
      "type": "error"
    },
    {
      "inputs": [
        {
          "internalType": "address",
          "name": "router",
          "type": "address"
        }
      ],
      "name": "InvalidConceroRouter",
      "type": "error"
    },
    {
      "inputs": [],
      "name": "InvalidDestinationChain",
      "type": "error"
    },
    {
      "inputs": [],
      "name": "InvalidDstChainData",
      "type": "error"
    },
    {
      "inputs": [
        {
          "internalType": "uint24",
          "name": "dstChainSelector",
          "type": "uint24"
        }
      ],
      "name": "InvalidDstChainSelector",
      "type": "error"
    },
    {
      "inputs": [],
      "name": "InvalidMessageType",
      "type": "error"
    },
    {
      "inputs": [],
      "name": "MessageTooLarge",
      "type": "error"
    },
    {
      "inputs": [],
      "name": "NoDeficitToFill",
      "type": "error"
    },
    {
      "inputs": [],
      "name": "NoSurplusToTake",
      "type": "error"
    },
    {
      "inputs": [
        {
          "internalType": "address",
          "name": "target",
          "type": "address"
        }
      ],
      "name": "NotAContract",
      "type": "error"
    },
    {
      "inputs": [
        {
          "internalType": "uint256",
          "name": "remainingLiquidityToCollectForWithdraw",
          "type": "uint256"
        },
        {
          "internalType": "uint256",
          "name": "totalAmountToWithdrawLocked",
          "type": "uint256"
        }
      ],
      "name": "PendingWithdrawalsAreNotReady",
      "type": "error"
    },
    {
      "inputs": [
        {
          "internalType": "enum IConceroClientErrors.RequiredVariableUnsetType",
          "name": "variableType",
          "type": "uint8"
        }
      ],
      "name": "RequiredVariableUnset",
      "type": "error"
    },
    {
      "inputs": [
        {
          "internalType": "address",
          "name": "token",
          "type": "address"
        }
      ],
      "name": "SafeERC20FailedOperation",
      "type": "error"
    },
    {
      "inputs": [
        {
          "internalType": "uint24",
          "name": "chainSelector",
          "type": "uint24"
        },
        {
          "internalType": "uint32",
          "name": "timestamp",
          "type": "uint32"
        }
      ],
      "name": "SnapshotTimestampNotInRange",
      "type": "error"
    },
    {
      "inputs": [],
      "name": "TransferFailed",
      "type": "error"
    },
    {
      "inputs": [
        {
          "internalType": "address",
          "name": "caller",
          "type": "address"
        },
        {
          "internalType": "address",
          "name": "expected",
          "type": "address"
        }
      ],
      "name": "UnauthorizedCaller",
      "type": "error"
    },
    {
      "inputs": [],
      "name": "UnauthorizedSender",
      "type": "error"
    },
    {
      "inputs": [],
      "name": "UnsupportedFeeTokenType",
      "type": "error"
    },
    {
      "anonymous": false,
      "inputs": [
        {
          "indexed": false,
          "internalType": "uint256",
          "name": "amount",
          "type": "uint256"
        },
        {
          "indexed": false,
          "internalType": "uint256",
          "name": "iouAmount",
          "type": "uint256"
        }
      ],
      "name": "DeficitFilled",
      "type": "event"
    },
    {
      "anonymous": false,
      "inputs": [
        {
          "indexed": true,
          "internalType": "bytes32",
          "name": "depositId",
          "type": "bytes32"
        },
        {
          "indexed": true,
          "internalType": "address",
          "name": "lp",
          "type": "address"
        },
        {
          "indexed": false,
          "internalType": "uint256",
          "name": "amount",
          "type": "uint256"
        }
      ],
      "name": "DepositQueued",
      "type": "event"
    },
    {
      "anonymous": false,
      "inputs": [
        {
          "indexed": true,
          "internalType": "uint24",
          "name": "chainSelector",
          "type": "uint24"
        },
        {
          "indexed": true,
          "internalType": "address",
          "name": "poolAddress",
          "type": "address"
        }
      ],
      "name": "DstPoolSet",
      "type": "event"
    },
    {
      "anonymous": false,
      "inputs": [
        {
          "indexed": true,
          "internalType": "address",
          "name": "sender",
          "type": "address"
        },
        {
          "indexed": true,
          "internalType": "uint24",
          "name": "dstChainSelector",
          "type": "uint24"
        },
        {
          "indexed": false,
          "internalType": "uint256",
          "name": "amount",
          "type": "uint256"
        },
        {
          "indexed": false,
          "internalType": "bytes32",
          "name": "messageId",
          "type": "bytes32"
        }
      ],
      "name": "IOUBridged",
      "type": "event"
    },
    {
      "anonymous": false,
      "inputs": [
        {
          "indexed": true,
          "internalType": "uint24",
          "name": "srcChainSelector",
          "type": "uint24"
        },
        {
          "indexed": true,
          "internalType": "address",
          "name": "receiver",
          "type": "address"
        },
        {
          "indexed": false,
          "internalType": "uint256",
          "name": "amount",
          "type": "uint256"
        },
        {
          "indexed": false,
          "internalType": "bytes32",
          "name": "messageId",
          "type": "bytes32"
        }
      ],
      "name": "IOUReceived",
      "type": "event"
    },
    {
      "anonymous": false,
      "inputs": [
        {
          "indexed": false,
          "internalType": "uint256",
          "name": "amount",
          "type": "uint256"
        },
        {
          "indexed": false,
          "internalType": "uint256",
          "name": "iouAmount",
          "type": "uint256"
        }
      ],
      "name": "SurplusTaken",
      "type": "event"
    },
    {
      "anonymous": false,
      "inputs": [
        {
          "indexed": true,
          "internalType": "bytes32",
          "name": "withdrawId",
          "type": "bytes32"
        },
        {
          "indexed": true,
          "internalType": "address",
          "name": "lp",
          "type": "address"
        },
        {
          "indexed": false,
          "internalType": "uint256",
          "name": "amount",
          "type": "uint256"
        }
      ],
      "name": "WithdrawQueued",
      "type": "event"
    },
    {
      "inputs": [],
      "name": "BPS_DENOMINATOR",
      "outputs": [
        {
          "internalType": "uint256",
          "name": "",
          "type": "uint256"
        }
      ],
      "stateMutability": "view",
      "type": "function"
    },
    {
      "inputs": [],
      "name": "REBALANCER_PREMIUM_BPS",
      "outputs": [
        {
          "internalType": "uint256",
          "name": "",
          "type": "uint256"
        }
      ],
      "stateMutability": "view",
      "type": "function"
    },
    {
      "inputs": [
        {
          "internalType": "uint256",
          "name": "iouTokenAmount",
          "type": "uint256"
        },
        {
          "internalType": "uint24",
          "name": "destinationChainSelector",
          "type": "uint24"
        }
      ],
      "name": "bridgeIOU",
      "outputs": [
        {
          "internalType": "bytes32",
          "name": "messageId",
          "type": "bytes32"
        }
      ],
      "stateMutability": "payable",
      "type": "function"
    },
    {
      "inputs": [
        {
          "internalType": "bytes32",
          "name": "messageId",
          "type": "bytes32"
        },
        {
          "internalType": "uint24",
          "name": "srcChainSelector",
          "type": "uint24"
        },
        {
          "internalType": "bytes",
          "name": "sender",
          "type": "bytes"
        },
        {
          "internalType": "bytes",
          "name": "message",
          "type": "bytes"
        }
      ],
      "name": "conceroReceive",
      "outputs": [],
      "stateMutability": "nonpayable",
      "type": "function"
    },
    {
      "inputs": [
        {
          "internalType": "uint24",
          "name": "chainSelector",
          "type": "uint24"
        }
      ],
      "name": "dstPools",
      "outputs": [
        {
          "internalType": "address",
          "name": "",
          "type": "address"
        }
      ],
      "stateMutability": "view",
      "type": "function"
    },
    {
      "inputs": [
        {
          "internalType": "uint256",
          "name": "amount",
          "type": "uint256"
        }
      ],
      "name": "enterDepositQueue",
      "outputs": [],
      "stateMutability": "nonpayable",
      "type": "function"
    },
    {
      "inputs": [
        {
          "internalType": "uint256",
          "name": "amount",
          "type": "uint256"
        }
      ],
      "name": "enterWithdrawQueue",
      "outputs": [],
      "stateMutability": "nonpayable",
      "type": "function"
    },
    {
      "inputs": [
        {
          "internalType": "uint256",
          "name": "liquidityAmountToFill",
          "type": "uint256"
        }
      ],
      "name": "fillDeficit",
      "outputs": [
        {
          "internalType": "uint256",
          "name": "iouTokensToMint",
          "type": "uint256"
        }
      ],
      "stateMutability": "nonpayable",
      "type": "function"
    },
    {
      "inputs": [],
      "name": "getActiveBalance",
      "outputs": [
        {
          "internalType": "uint256",
          "name": "",
          "type": "uint256"
        }
      ],
      "stateMutability": "view",
      "type": "function"
    },
    {
      "inputs": [],
      "name": "getCurrentDeficit",
      "outputs": [
        {
          "internalType": "uint256",
          "name": "deficit",
          "type": "uint256"
        }
      ],
      "stateMutability": "view",
      "type": "function"
    },
    {
      "inputs": [],
      "name": "getCurrentSurplus",
      "outputs": [
        {
          "internalType": "uint256",
          "name": "surplus",
          "type": "uint256"
        }
      ],
      "stateMutability": "view",
      "type": "function"
    },
    {
      "inputs": [],
      "name": "getIOUToken",
      "outputs": [
        {
          "internalType": "address",
          "name": "",
          "type": "address"
        }
      ],
      "stateMutability": "view",
      "type": "function"
    },
    {
      "inputs": [
        {
          "internalType": "uint24",
          "name": "destinationChainSelector",
          "type": "uint24"
        },
        {
          "internalType": "address",
          "name": "destinationPoolAddress",
          "type": "address"
        },
        {
          "internalType": "uint256",
          "name": "gasLimitForExecution",
          "type": "uint256"
        }
      ],
      "name": "getMessageFee",
      "outputs": [
        {
          "internalType": "uint256",
          "name": "crossChainMessageFee",
          "type": "uint256"
        }
      ],
      "stateMutability": "view",
      "type": "function"
    },
    {
      "inputs": [],
      "name": "getPoolData",
      "outputs": [
        {
          "internalType": "uint256",
          "name": "deficit",
          "type": "uint256"
        },
        {
          "internalType": "uint256",
          "name": "surplus",
          "type": "uint256"
        }
      ],
      "stateMutability": "view",
      "type": "function"
    },
    {
      "inputs": [],
      "name": "getSupportedChainSelectors",
      "outputs": [
        {
          "internalType": "uint24[]",
          "name": "",
          "type": "uint24[]"
        }
      ],
      "stateMutability": "view",
      "type": "function"
    },
    {
      "inputs": [],
      "name": "getSurplus",
      "outputs": [
        {
          "internalType": "uint256",
          "name": "",
          "type": "uint256"
        }
      ],
      "stateMutability": "view",
      "type": "function"
    },
    {
      "inputs": [],
      "name": "getTargetBalance",
      "outputs": [
        {
          "internalType": "uint256",
          "name": "",
          "type": "uint256"
        }
      ],
      "stateMutability": "view",
      "type": "function"
    },
    {
      "inputs": [],
      "name": "getTodayStartTimestamp",
      "outputs": [
        {
          "internalType": "uint32",
          "name": "",
          "type": "uint32"
        }
      ],
      "stateMutability": "view",
      "type": "function"
    },
    {
      "inputs": [],
      "name": "getTotalChildPoolsActiveBalance",
      "outputs": [
        {
          "internalType": "uint256",
          "name": "",
          "type": "uint256"
        }
      ],
      "stateMutability": "view",
      "type": "function"
    },
    {
      "inputs": [],
      "name": "getYesterdayFlow",
      "outputs": [
        {
          "components": [
            {
              "internalType": "uint256",
              "name": "inflow",
              "type": "uint256"
            },
            {
              "internalType": "uint256",
              "name": "outflow",
              "type": "uint256"
            }
          ],
          "internalType": "struct IPoolBase.LiqTokenAmountFlow",
          "name": "",
          "type": "tuple"
        }
      ],
      "stateMutability": "view",
      "type": "function"
    },
    {
      "inputs": [],
      "name": "getYesterdayStartTimestamp",
      "outputs": [
        {
          "internalType": "uint32",
          "name": "",
          "type": "uint32"
        }
      ],
      "stateMutability": "view",
      "type": "function"
    },
    {
      "inputs": [
        {
          "internalType": "uint32",
          "name": "timestamp",
          "type": "uint32"
        }
      ],
      "name": "isLiquiditySnapshotTimestampInRange",
      "outputs": [
        {
          "internalType": "bool",
          "name": "",
          "type": "bool"
        }
      ],
      "stateMutability": "pure",
      "type": "function"
    },
    {
      "inputs": [],
      "name": "isReadyToProcessPendingWithdrawals",
      "outputs": [
        {
          "internalType": "bool",
          "name": "",
          "type": "bool"
        }
      ],
      "stateMutability": "view",
      "type": "function"
    },
    {
      "inputs": [],
      "name": "isReadyToTriggerDepositWithdrawProcess",
      "outputs": [
        {
          "internalType": "bool",
          "name": "",
          "type": "bool"
        }
      ],
      "stateMutability": "view",
      "type": "function"
    },
    {
      "inputs": [],
      "name": "processPendingWithdrawals",
      "outputs": [],
      "stateMutability": "nonpayable",
      "type": "function"
    },
    {
      "inputs": [
        {
          "internalType": "uint24",
          "name": "destinationChainSelector",
          "type": "uint24"
        },
        {
          "internalType": "address",
          "name": "destinationPoolAddress",
          "type": "address"
        }
      ],
      "name": "setDstPool",
      "outputs": [],
      "stateMutability": "nonpayable",
      "type": "function"
    },
    {
      "inputs": [
        {
          "internalType": "uint256",
          "name": "iouTokensToBurn",
          "type": "uint256"
        }
      ],
      "name": "takeSurplus",
      "outputs": [
        {
          "internalType": "uint256",
          "name": "liquidityTokensToReceive",
          "type": "uint256"
        }
      ],
      "stateMutability": "nonpayable",
      "type": "function"
    },
    {
      "inputs": [
        {
          "internalType": "uint256",
          "name": "lpTokenAmount",
          "type": "uint256"
        }
      ],
      "name": "toLiqTokenDecimals",
      "outputs": [
        {
          "internalType": "uint256",
          "name": "",
          "type": "uint256"
        }
      ],
      "stateMutability": "view",
      "type": "function"
    },
    {
      "inputs": [
        {
          "internalType": "uint256",
          "name": "liquidityTokenAmount",
          "type": "uint256"
        }
      ],
      "name": "toLpTokenDecimals",
      "outputs": [
        {
          "internalType": "uint256",
          "name": "",
          "type": "uint256"
        }
      ],
      "stateMutability": "view",
      "type": "function"
    },
    {
      "inputs": [],
      "name": "triggerDepositWithdrawProcess",
      "outputs": [],
      "stateMutability": "payable",
      "type": "function"
    },
    {
      "stateMutability": "payable",
      "type": "receive"
    }
  ],
  "bytecode": "0x61012060405234801561001157600080fd5b506040516135d33803806135d3833981016040819052610030916100d4565b6001600160a01b0386811660805260ff861660a0526000805462ffffff191662ffffff85161790558190849081908190811661008f5760405163593edec360e01b81526001600160a01b03909116600482015260240160405180910390fd5b506001600160a01b0390811660c05291821660e0525093909316610100525061015a9350505050565b80516001600160a01b03811681146100cf57600080fd5b919050565b60008060008060008060c087890312156100ed57600080fd5b6100f6876100b8565b9550602087015160ff8116811461010c57600080fd5b945061011a604088016100b8565b9350610128606088016100b8565b9250608087015162ffffff8116811461014057600080fd5b915061014e60a088016100b8565b90509295509295509295565b60805160a05160c05160e051610100516133b061022360003960008181610f0a01528181611307015281816123dc01526124cc01526000818161027001528181610da9015281816114bd0152818161174c0152611bc30152600081816106010152818161080f015281816115a70152818161298d0152612a490152600081816107000152818161073201528181610cbc0152610ceb01526000818161089801528181610e1a01528181611391015281816116e301528181611a370152611e3701526133b06000f3fe6080604052600436106101d15760003560e01c80637e7725d2116100f7578063daeeb55f11610095578063e89776fb11610064578063e89776fb146104f4578063eb175b7e14610509578063fb29238b1461051e578063fbaf74db1461054857600080fd5b8063daeeb55f14610496578063e170f48e146104ab578063e1a45218146104be578063e67b9abe146104d457600080fd5b80639aa076fc116100d15780639aa076fc1461041c578063ae1065c414610431578063bbb2829914610451578063d918886d1461046657600080fd5b80637e7725d2146103d257806384b4bf66146103f25780638b40cf7a1461040757600080fd5b8063424ad82c1161016f5780636787f36d1161013e5780636787f36d1461036b5780636788a7151461039557806368c4f0f31461039d5780637813a156146103bd57600080fd5b8063424ad82c146102e75780634e30f4eb146103095780635f09323d1461032957806366ac9b1f1461034b57600080fd5b80630dda4dc2116101ab5780630dda4dc2146102615780632383b074146102a85780632ef49375146102bd57806340cad85e146102d257600080fd5b806303b12086146101dd578063044e6c5714610210578063099725481461024157600080fd5b366101d857005b600080fd5b3480156101e957600080fd5b506101fd6101f8366004612d2f565b610590565b6040519081526020015b60405180910390f35b34801561021c57600080fd5b5061023161022b366004612d6e565b50600190565b6040519015158152602001610207565b34801561024d57600080fd5b506101fd61025c366004612d94565b6106fa565b34801561026d57600080fd5b507f00000000000000000000000000000000000000000000000000000000000000005b6040516001600160a01b039091168152602001610207565b3480156102b457600080fd5b506101fd61076a565b3480156102c957600080fd5b506101fd6107a4565b3480156102de57600080fd5b506102316107dd565b3480156102f357600080fd5b50610307610302366004612df6565b610804565b005b34801561031557600080fd5b50610307610324366004612d94565b610876565b34801561033557600080fd5b5061033e610a54565b6040516102079190612e85565b34801561035757600080fd5b50610307610366366004612ec2565b610ad9565b34801561037757600080fd5b50610380610b6a565b60405163ffffffff9091168152602001610207565b610307610b7e565b3480156103a957600080fd5b506101fd6103b8366004612d94565b610cb6565b3480156103c957600080fd5b50610380610d16565b3480156103de57600080fd5b506101fd6103ed366004612d94565b610d2c565b3480156103fe57600080fd5b506101fd610e84565b34801561041357600080fd5b506101fd610ebd565b34801561042857600080fd5b506101fd600a81565b34801561043d57600080fd5b5061030761044c366004612d94565b610ee8565b34801561045d57600080fd5b5061023161108e565b34801561047257600080fd5b5061047b6110fc565b60408051825181526020928301519281019290925201610207565b3480156104a257600080fd5b50610307611163565b6101fd6104b9366004612ef9565b611436565b3480156104ca57600080fd5b506101fd61271081565b3480156104e057600080fd5b506101fd6104ef366004612d94565b61167b565b34801561050057600080fd5b506101fd6117e7565b34801561051557600080fd5b506101fd611977565b34801561052a57600080fd5b5061053361198a565b60408051928352602083019190915201610207565b34801561055457600080fd5b50610290610563366004612f25565b62ffffff16600090815260008051602061335b83398151915260205260409020546001600160a01b031690565b60006001600160a01b0383166105b95760405163162908e360e11b815260040160405180910390fd5b600082116105da5760405163162908e360e11b815260040160405180910390fd5b60006040518060400160405280856001600160a01b031681526020018481525090506000807f00000000000000000000000000000000000000000000000000000000000000006001600160a01b031687600080866040516024016106419493929190612f40565b60408051601f198184030181529181526020820180516001600160e01b031663e45700ff60e01b179052516106769190612fa7565b600060405180830381855afa9150503d80600081146106b1576040519150601f19603f3d011682016040523d82523d6000602084013e6106b6565b606091505b5091509150816106d957604051631cc185e760e31b815260040160405180910390fd5b808060200190518101906106ed9190612fc3565b93505050505b9392505050565b600060ff7f00000000000000000000000000000000000000000000000000000000000000001660100361072b575090565b601061075a7f000000000000000000000000000000000000000000000000000000000000000060ff1684612ff2565b610764919061301f565b92915050565b6000806107756107a4565b90506000610781611977565b90508082116107935760009250505090565b61079d8183613033565b9250505090565b6000806107af6119a5565b905080600f015481600201546107c3611a1f565b6107cd9190613033565b6107d79190613033565b91505090565b6000806107e86119a5565b9050806010015460001480156107d75750600f01541515919050565b336001600160a01b037f000000000000000000000000000000000000000000000000000000000000000016811461085f5760405163593edec360e01b81526001600160a01b0390911660048201526024015b60405180910390fd5b5061086e868686868686611aaa565b505050505050565b6040516323b872dd60e01b8152336004820152306024820152604481018290527f00000000000000000000000000000000000000000000000000000000000000006001600160a01b0316906323b872dd906064016020604051808303816000875af11580156108e9573d6000803e3d6000fd5b505050506040513d601f19601f8201168201806040525081019061090d9190613046565b5060006109186119a5565b905060006040518060400160405280848152602001336001600160a01b0316815250905060003343846005016000815461095190613068565b918290555060405160609390931b6bffffffffffffffffffffffff191660208401526034830191909152605482015260740160408051808303601f19018152918152815160209283012060008181528684529182208551815585840151600191820180546001600160a01b0319166001600160a01b039092169190911790556003870180549182018155835292822090920182905560028501805492935086929091906109ff908490613081565b9250508190555081602001516001600160a01b0316817f85c9abbd1677b950ff0b0aa59c7e9cd485639ea497f2d5f439ca55d51e9cd95a86604051610a4691815260200190565b60405180910390a350505050565b6060610a5e611c95565b805460408051602080840282018101909252828152929190830182828015610acf57602002820191906000526020600020906000905b82829054906101000a900462ffffff1662ffffff1681526020019060030190602082600201049283019260010382029150808411610a945790505b5050505050905090565b6001600160a01b038116610b005760405163162908e360e11b815260040160405180910390fd5b62ffffff8216600081815260008051602061335b833981519152602052604080822080546001600160a01b0319166001600160a01b03861690811790915590519092917fd6a1e8418aa5b3c57796c5b84e6c57dd3a4a8eef86bb856bc8dea8ea98c506dd91a35050565b6000610b796201518042613094565b905090565b6000610b886119a5565b600c81015490915033906001600160a01b0316818114610bce5760405163536dd9ef60e01b81526001600160a01b03928316600482015291166024820152604401610856565b50506000306001600160a01b031663e89776fb6040518163ffffffff1660e01b8152600401602060405180830381865afa158015610c10573d6000803e3d6000fd5b505050506040513d601f19601f82011682018060405250810190610c349190612fc3565b90506000610c4182611cbd565b90506000610c4e83611ec8565b9050808210610c8c57610c87610c626107a4565b84610c6d8486613033565b610c779190613081565b610c819190613081565b82612131565b610cb0565b610cb0610c976107a4565b610ca19085613081565b610cab8484613033565b612211565b50505050565b600060ff7f000000000000000000000000000000000000000000000000000000000000000016601003610ce7575090565b60ff7f00000000000000000000000000000000000000000000000000000000000000001661075a601084612ff2565b60006001610d22610b6a565b610b7991906130bc565b6000808211610d4e5760405163162908e360e11b815260040160405180910390fd5b6000610d58610ebd565b905060008111610d7b5760405163650ef7f160e01b815260040160405180910390fd5b8291508181811115610d8d5750905080805b60405163079cc67960e41b8152336004820152602481018290527f00000000000000000000000000000000000000000000000000000000000000006001600160a01b0316906379cc679090604401600060405180830381600087803b158015610df557600080fd5b505af1158015610e09573d6000803e3d6000fd5b50610e439250506001600160a01b037f0000000000000000000000000000000000000000000000000000000000000000169050338561233a565b60408051848152602081018390527fc33e79ca9397264ebe240c493b0dd12b66d5ad8ae896769f1e1aa09dab1e137191015b60405180910390a15050919050565b600080610e8f611977565b90506000610e9b6107a4565b905081811015610eb457610eaf8183613033565b61079d565b60009250505090565b600080610ec8611977565b90506000610ed46107a4565b905081811115610eb457610eaf8282613033565b6040516323b872dd60e01b8152336004820152306024820152604481018290527f00000000000000000000000000000000000000000000000000000000000000006001600160a01b0316906323b872dd906064016020604051808303816000875af1158015610f5b573d6000803e3d6000fd5b505050506040513d601f19601f82011682018060405250810190610f7f9190613046565b506000610f8a6119a5565b905060006040518060400160405280848152602001336001600160a01b03168152509050600033438460060160008154610fc390613068565b918290555060405160609390931b6bffffffffffffffffffffffff191660208401526034830191909152605482015260740160408051808303601f19018152828252805160209182012060008181526001888101845293812087518155878401805191860180546001600160a01b0319166001600160a01b0393841617905560048a0180549687018155835291849020909401829055518885529094509091169183917fda0d0d34aab4b5b53d995ecd670d9c5db5de17afd9b78d57cb845a0668d7dc799101610a46565b6000306001600160a01b031663e89776fb6040518163ffffffff1660e01b8152600401602060405180830381865afa9250505080156110ea575060408051601f3d908101601f191682019092526110e791810190612fc3565b60015b6110f45750600090565b506001905090565b6040805180820190915260008082526020820152611118611c95565b6002016000611125610d16565b63ffffffff1663ffffffff16815260200190815260200160002060405180604001604052908160008201548152602001600182015481525050905090565b600061116d6119a5565b600c81015490915033906001600160a01b03168181146111b35760405163536dd9ef60e01b81526001600160a01b03928316600482015291166024820152604401610856565b505060006111bf6119a5565b90506111c96107dd565b816010015482600f015490916111fb57604051636524c1ff60e11b815260048101929092526024820152604401610856565b5050600081600a0180548060200260200160405190810160405280929190818152602001828054801561124d57602002820191906000526020600020905b815481526020019060010190808311611239575b505050505090506112816040518060600160405280600081526020016000815260200160006001600160a01b031681525090565b6000805b83518110156114155784600b0160008583815181106112a6576112a66130d8565b602090810291909101810151825281810192909252604090810160002081516060810183528154815260018201549381018490526002909101546001600160a01b03908116828401529151630852cd8d60e31b8152600481019390935294507f000000000000000000000000000000000000000000000000000000000000000016906342966c6890602401600060405180830381600087803b15801561134b57600080fd5b505af115801561135f573d6000803e3d6000fd5b505050506040838101518451915163a9059cbb60e01b81526001600160a01b03918216600482015260248101929092527f0000000000000000000000000000000000000000000000000000000000000000169063a9059cbb906044016020604051808303816000875af11580156113da573d6000803e3d6000fd5b505050506040513d601f19601f820116820180604052508101906113fe9190613046565b50825161140b9083613081565b9150600101611285565b508084600f01600082825461142a9190613033565b90915550505050505050565b60008083116114585760405163162908e360e11b815260040160405180910390fd5b62ffffff8216600090815260008051602061335b83398151915260205260409020546001600160a01b0316806114a15760405163b86ac1ef60e01b815260040160405180910390fd5b60405163079cc67960e41b8152336004820152602481018590527f00000000000000000000000000000000000000000000000000000000000000006001600160a01b0316906379cc679090604401600060405180830381600087803b15801561150957600080fd5b505af115801561151d573d6000803e3d6000fd5b50505050600084336040516020016115489291909182526001600160a01b0316602082015260400190565b60405160208183030381529060405290506000808260405160200161156e92919061314e565b60408051601f1981840301815282820182526001600160a01b038087168452620493e060208501529151631999b75760e21b81529093507f000000000000000000000000000000000000000000000000000000000000000090911690636666dd5c9034906115e9908a90600090819088908a90600401613170565b60206040518083038185885af1158015611607573d6000803e3d6000fd5b50505050506040513d601f19601f8201168201806040525081019061162c9190612fc3565b604080518981526020810183905291965062ffffff88169133917f7cdaf37c0ad0d8ed400b95bfa52751eba63a7516120145d4ac140d00a7dfc7e7910160405180910390a35050505092915050565b600080821161169d5760405163162908e360e11b815260040160405180910390fd5b60006116a7610e84565b9050600081116116ca57604051633483163160e11b815260040160405180910390fd5b82818111156116d65750805b61170b6001600160a01b037f00000000000000000000000000000000000000000000000000000000000000001633308461239e565b612710611719600a82613081565b6117239083612ff2565b61172d919061301f565b6040516340c10f1960e01b8152336004820152602481018290529093507f00000000000000000000000000000000000000000000000000000000000000006001600160a01b0316906340c10f1990604401600060405180830381600087803b15801561179857600080fd5b505af11580156117ac573d6000803e3d6000fd5b505060408051848152602081018790527f5421162aeffad1e043036db6af277641817f5c94cd75b2cbc9c0c10b7b58344d9350019050610e75565b6000806117f26119a5565b905060008160070180548060200260200160405190810160405280929190818152602001828054801561186e57602002820191906000526020600020906000905b82829054906101000a900462ffffff1662ffffff16815260200190600301906020826002010492830192600103820291508084116118335790505b505050505090506000805b825181101561196f57600084600801600085848151811061189c5761189c6130d8565b60209081029190910181015162ffffff1682528101919091526040016000206001015463ffffffff1690506118cf600190565b61191d578382815181106118e5576118e56130d8565b6020908102919091010151604051630a43f79960e11b815262ffffff909116600482015263ffffffff82166024820152604401610856565b846008016000858481518110611935576119356130d8565b602002602001015162ffffff1662ffffff16815260200190815260200160002060000154836119649190613081565b925050600101611879565b509392505050565b6000611981611c95565b60010154905090565b600080611995610e84565b915061199f610ebd565b90509091565b604051691c185c995b9d141bdbdb60b21b6020820152600090819060ff1990600190602a015b6040516020818303038152906040528051906020012060001c6119ee9190613033565b604051602001611a0091815260200190565b60408051601f1981840301815291905280516020909101201692915050565b6040516370a0823160e01b81523060048201526000907f00000000000000000000000000000000000000000000000000000000000000006001600160a01b0316906370a0823190602401602060405180830381865afa158015611a86573d6000803e3d6000fd5b505050506040513d601f19601f82011682018060405250810190610b799190612fc3565b6000611ab8848601866131c5565b90506001600160a01b03811660008051602061335b83398151915262ffffff8816600090815260209190915260409020546001600160a01b031614611b1057604051630101292160e31b815260040160405180910390fd5b600080611b1f848601866131f8565b90925090506000828015611b3557611b356130ee565b03611c715760008082806020019051810190611b5191906132c8565b9150915060008211611b765760405163162908e360e11b815260040160405180910390fd5b6001600160a01b038116611b9d5760405163162908e360e11b815260040160405180910390fd5b6040516340c10f1960e01b81526001600160a01b038281166004830152602482018490527f000000000000000000000000000000000000000000000000000000000000000016906340c10f1990604401600060405180830381600087803b158015611c0757600080fd5b505af1158015611c1b573d6000803e3d6000fd5b505060408051858152602081018f90526001600160a01b038516935062ffffff8e1692507f43a3f0a2dfbb33fd67474bd2b122d3057366551a1f93b65b4ddeccb105b83837910160405180910390a35050611c8a565b604051635b60892f60e01b815260040160405180910390fd5b505050505050505050565b60405167706f6f6c4261736560c01b6020820152600090819060ff19906001906028016119cb565b600080611cc86119a5565b9050600081600301805480602002602001604051908101604052809291908181526020018280548015611d1a57602002820191906000526020600020905b815481526020019060010190808311611d06575b505050505090506000805b8251811015611eb1576000846000016000858481518110611d4857611d486130d8565b60209081029190910181015182528181019290925260409081016000908120825180840190935280548352600101546001600160a01b0316928201929092528551909250869190869085908110611da157611da16130d8565b6020908102919091018101518252810191909152604001600090812081815560010180546001600160a01b0319169055611ded611ddc6107a4565b611de6908a613081565b83516123d7565b90508160000151866002016000828254611e079190613033565b909155505060208201516040516340c10f1960e01b81526001600160a01b039182166004820152602481018390527f0000000000000000000000000000000000000000000000000000000000000000909116906340c10f1990604401600060405180830381600087803b158015611e7d57600080fd5b505af1158015611e91573d6000803e3d6000fd5b50508351611ea29250905085613081565b93505050806001019050611d25565b50611ec0600384016000612cc8565b949350505050565b600080611ed36119a5565b9050600081600401805480602002602001604051908101604052809291908181526020018280548015611f2557602002820191906000526020600020905b815481526020019060010190808311611f11575b50505050509050600080611f5560405180604001604052806000815260200160006001600160a01b031681525090565b60005b845181101561211757856001016000868381518110611f7957611f796130d8565b60200260200101518152602001908152602001600020604051806040016040529081600082015481526020016001820160009054906101000a90046001600160a01b03166001600160a01b03166001600160a01b0316815250509150856001016000868381518110611fed57611fed6130d8565b6020908102919091018101518252810191909152604001600090812090815560010180546001600160a01b0319169055815161202a9089906124b0565b92506120368385613081565b935060405180606001604052808481526020018360000151815260200183602001516001600160a01b031681525086600b01600087848151811061207c5761207c6130d8565b60200260200101518152602001908152602001600020600082015181600001556020820151816001015560408201518160020160006101000a8154816001600160a01b0302191690836001600160a01b0316021790555090505085600a018582815181106120ec576120ec6130d8565b6020908102919091018101518254600181810185556000948552929093209092019190915501611f58565b50612126600486016000612cc8565b509095945050505050565b60008061213d8461256a565b915091508261214a6119a5565b600f01600082825461215c9190613081565b90915550600090505b825181101561220a57600054835162ffffff9091169084908390811061218d5761218d6130d8565b602002602001015162ffffff16146121e0576121db8382815181106121b4576121b46130d8565b60200260200101518383815181106121ce576121ce6130d8565b60200260200101516128f7565b612202565b6122028282815181106121f5576121f56130d8565b6020026020010151612ad6565b600101612165565b5050505050565b600061221b6119a5565b9050600061222761076a565b9050828110156000816122415761223e8386613033565b90505b600080612256612251848a613033565b61256a565b9150915060005b8251811015611c8a57600054835162ffffff90911690849083908110612285576122856130d8565b602002602001015162ffffff16146122b1576122ac8382815181106121b4576121b46130d8565b612332565b84612302576122e3848383815181106122cc576122cc6130d8565b60200260200101516122de9190613081565b612ad6565b838760100160008282546122f79190613081565b909155506123329050565b8787600f0160008282546123169190613081565b925050819055506123328282815181106121f5576121f56130d8565b60010161225d565b6040516001600160a01b0383811660248301526044820183905261239991859182169063a9059cbb906064015b604051602081830303815290604052915060e01b6020820180516001600160e01b038381831617835250505050612ae6565b505050565b6040516001600160a01b038481166024830152838116604483015260648201839052610cb09186918216906323b872dd90608401612367565b6000807f00000000000000000000000000000000000000000000000000000000000000006001600160a01b03166318160ddd6040518163ffffffff1660e01b8152600401602060405180830381865afa158015612438573d6000803e3d6000fd5b505050506040513d601f19601f8201168201806040525081019061245c9190612fc3565b9050806000036124775761246f83610cb6565b915050610764565b600061248285610cb6565b9050600061248f85610cb6565b90508161249c8285612ff2565b6124a6919061301f565b9695505050505050565b6000806124bb6107a4565b6124c59085613081565b9050611ec07f00000000000000000000000000000000000000000000000000000000000000006001600160a01b03166318160ddd6040518163ffffffff1660e01b8152600401602060405180830381865afa158015612528573d6000803e3d6000fd5b505050506040513d601f19601f8201168201806040525081019061254c9190612fc3565b8461255684610cb6565b6125609190612ff2565b61025c919061301f565b60608060006125776119a5565b90506000612583610a54565b90506000815160016125959190613081565b67ffffffffffffffff8111156125ad576125ad6131e2565b6040519080825280602002602001820160405280156125d6578160200160208202803683370190505b5090506000815167ffffffffffffffff8111156125f5576125f56131e2565b60405190808252806020026020018201604052801561261e578160200160208202803683370190505b50905061263e604051806040016040528060008152602001600081525090565b6000805484518291829162ffffff90911690879061265e90600190613033565b8151811061266e5761266e6130d8565b602002602001019062ffffff16908162ffffff168152505060005b87518110156127df578781815181106126a4576126a46130d8565b60200260200101518782815181106126be576126be6130d8565b602002602001019062ffffff16908162ffffff16815250508860080160008983815181106126ee576126ee6130d8565b602002602001015162ffffff1662ffffff16815260200190815260200160002060020160405180604001604052908160008201548152602001600182015481525050945088600901600089838151811061274a5761274a6130d8565b602002602001015162ffffff1662ffffff16815260200190815260200160002054935083836127799190613081565b92506127858585612b57565b6127929060ff1685612ff2565b8682815181106127a4576127a46130d8565b6020026020010181815250508581815181106127c2576127c26130d8565b6020026020010151826127d59190613081565b9150600101612689565b506127e8612bf4565b85600187516127f79190613033565b81518110612807576128076130d8565b60200260200101818152505084600186516128229190613033565b81518110612832576128326130d8565b6020026020010151816128459190613081565b90506000865167ffffffffffffffff811115612863576128636131e2565b60405190808252806020026020018201604052801561288c578160200160208202803683370190505b50905060005b81518110156128e4576128bf8782815181106128b0576128b06130d8565b6020026020010151848f612c1f565b8282815181106128d1576128d16130d8565b6020908102919091010152600101612892565b50969b969a509598505050505050505050565b60006129016119a5565b62ffffff841660009081526009820160209081526040808320869055600e84019091529020549091506001600160a01b0316838161295a57604051630775dd4160e21b815262ffffff9091166004820152602401610856565b506040805180820182526001600160a01b038084168252620186a06020830152915163e45700ff60e01b815290916000917f00000000000000000000000000000000000000000000000000000000000000009091169063e45700ff906129ca908990859081908890600401612f40565b602060405180830381865afa1580156129e7573d6000803e3d6000fd5b505050506040513d601f19601f82011682018060405250810190612a0b9190612fc3565b905060008086604051602001612a229291906132ee565b60408051601f1981840301815290829052631999b75760e21b825291506001600160a01b037f00000000000000000000000000000000000000000000000000000000000000001690636666dd5c908490612a89908b9060009081908a908990600401613170565b60206040518083038185885af1158015612aa7573d6000803e3d6000fd5b50505050506040513d601f19601f82011682018060405250810190612acc9190612fc3565b5050505050505050565b80612adf611c95565b6001015550565b600080602060008451602086016000885af180612b09576040513d6000823e3d81fd5b50506000513d91508115612b21578060011415612b2e565b6001600160a01b0384163b155b15610cb057604051635274afe760e01b81526001600160a01b0385166004820152602401610856565b600080612b6d8460000151856020015185612c36565b90506000612b848560000151866020015186612c88565b90506000612b906119a5565b600d810154909150600090612baf90849062010000900460ff16613305565b600d830154612bc7908690610100900460ff16613305565b612bd19190613328565b9050612bde816001613341565b612be9906001613328565b979650505050505050565b600080612bff611977565b9050612c12612c0c6110fc565b82612b57565b6107d79060ff1682612ff2565b600081612c2c848661301f565b611ec09190612ff2565b60008082612c448587613081565b612c4e919061301f565b905080612c596119a5565b600d0154612c6a919060ff16613081565b612c74908261301f565b612c7f906001613033565b95945050505050565b60008284101580612c97575081155b15612ca4575060016106f3565b600082612cb18686613033565b612cbb919061301f565b9050612c7f816001613033565b5080546000825590600052602060002090810190612ce69190612ce9565b50565b5b80821115612cfe5760008155600101612cea565b5090565b803562ffffff81168114612d1557600080fd5b919050565b6001600160a01b0381168114612ce657600080fd5b600080600060608486031215612d4457600080fd5b612d4d84612d02565b92506020840135612d5d81612d1a565b929592945050506040919091013590565b600060208284031215612d8057600080fd5b813563ffffffff811681146106f357600080fd5b600060208284031215612da657600080fd5b5035919050565b60008083601f840112612dbf57600080fd5b50813567ffffffffffffffff811115612dd757600080fd5b602083019150836020828501011115612def57600080fd5b9250929050565b60008060008060008060808789031215612e0f57600080fd5b86359550612e1f60208801612d02565b9450604087013567ffffffffffffffff811115612e3b57600080fd5b612e4789828a01612dad565b909550935050606087013567ffffffffffffffff811115612e6757600080fd5b612e7389828a01612dad565b979a9699509497509295939492505050565b602080825282518282018190526000918401906040840190835b8181101561212657835162ffffff16835260209384019390920191600101612e9f565b60008060408385031215612ed557600080fd5b612ede83612d02565b91506020830135612eee81612d1a565b809150509250929050565b60008060408385031215612f0c57600080fd5b82359150612f1c60208401612d02565b90509250929050565b600060208284031215612f3757600080fd5b6106f382612d02565b62ffffff8516815283151560208201526001600160a01b038316604082015260a08101612c7f606083018480516001600160a01b03168252602090810151910152565b60005b83811015612f9e578181015183820152602001612f86565b50506000910152565b60008251612fb9818460208701612f83565b9190910192915050565b600060208284031215612fd557600080fd5b5051919050565b634e487b7160e01b600052601160045260246000fd5b808202811582820484141761076457610764612fdc565b634e487b7160e01b600052601260045260246000fd5b60008261302e5761302e613009565b500490565b8181038181111561076457610764612fdc565b60006020828403121561305857600080fd5b815180151581146106f357600080fd5b60006001820161307a5761307a612fdc565b5060010190565b8082018082111561076457610764612fdc565b600063ffffffff8316806130aa576130aa613009565b8063ffffffff84160491505092915050565b63ffffffff828116828216039081111561076457610764612fdc565b634e487b7160e01b600052603260045260246000fd5b634e487b7160e01b600052602160045260246000fd5b60018110612ce657634e487b7160e01b600052602160045260246000fd5b6000815180845261313a816020860160208601612f83565b601f01601f19169290920160200192915050565b61315783613104565b828152604060208201526000611ec06040830184613122565b62ffffff8616815284151560208201526001600160a01b03841660408201526131af606082018480516001600160a01b03168252602090810151910152565b60c060a08201526000612be960c0830184613122565b6000602082840312156131d757600080fd5b81356106f381612d1a565b634e487b7160e01b600052604160045260246000fd5b6000806040838503121561320b57600080fd5b82356001811061321a57600080fd5b9150602083013567ffffffffffffffff81111561323657600080fd5b8301601f8101851361324757600080fd5b803567ffffffffffffffff811115613261576132616131e2565b604051601f8201601f19908116603f0116810167ffffffffffffffff81118282101715613290576132906131e2565b6040528181528282016020018710156132a857600080fd5b816020840160208301376000602083830101528093505050509250929050565b600080604083850312156132db57600080fd5b82516020840151909250612eee81612d1a565b604081016132fb84613104565b9281526020015290565b60ff818116838216029081169081811461332157613321612fdc565b5092915050565b60ff818116838216019081111561076457610764612fdc565b60ff828116828216039081111561076457610764612fdc56fedd1ad270084ea5e9579375a266975b00f1dbdd24c0405974f45724b3c9ffd5f3a26469706673582212205f75b7e0563bca7141975409a17f215373f1a57e249b00bce5ae73d4ea60584f64736f6c634300081c0033",
  "linkReferences": {},
  "deployedLinkReferences": {}
}