{
  "_format": "hh-sol-artifact-1",
  "contractName": "ParentPool",
  "sourceName": "contracts/ParentPool/ParentPool.sol",
  "abi": [
    {
      "inputs": [
        {
          "internalType": "address",
          "name": "liquidityToken",
          "type": "address"
        },
        {
          "internalType": "uint8",
          "name": "liquidityTokenDecimals",
          "type": "uint8"
        },
        {
          "internalType": "address",
          "name": "lpToken",
          "type": "address"
        },
        {
          "internalType": "address",
          "name": "conceroRouter",
          "type": "address"
        },
        {
          "internalType": "uint24",
          "name": "chainSelector",
          "type": "uint24"
        },
        {
          "internalType": "address",
          "name": "iouToken",
          "type": "address"
        }
      ],
      "stateMutability": "nonpayable",
      "type": "constructor"
    },
    {
      "inputs": [],
      "name": "AmountIsToLow",
      "type": "error"
    },
    {
      "inputs": [],
      "name": "ChildPoolSnapshotsAreNotReady",
      "type": "error"
    },
    {
      "inputs": [],
      "name": "ConceroSendFailed",
      "type": "error"
    },
    {
      "inputs": [
        {
          "internalType": "bytes",
          "name": "response",
          "type": "bytes"
        }
      ],
      "name": "DelegateCallFailed",
      "type": "error"
    },
    {
      "inputs": [],
      "name": "DepositQueueIsFull",
      "type": "error"
    },
    {
      "inputs": [],
      "name": "GetMessageFeeFailed",
      "type": "error"
    },
    {
      "inputs": [
        {
          "internalType": "uint256",
          "name": "provided",
          "type": "uint256"
        },
        {
          "internalType": "uint256",
          "name": "required",
          "type": "uint256"
        }
      ],
      "name": "InsufficientFee",
      "type": "error"
    },
    {
      "inputs": [],
      "name": "InvalidAmount",
      "type": "error"
    },
    {
      "inputs": [
        {
          "internalType": "enum IConceroClientErrors.MessageConfigErrorType",
          "name": "error",
          "type": "uint8"
        }
      ],
      "name": "InvalidClientMessageConfig",
      "type": "error"
    },
    {
      "inputs": [
        {
          "internalType": "address",
          "name": "router",
          "type": "address"
        }
      ],
      "name": "InvalidConceroRouter",
      "type": "error"
    },
    {
      "inputs": [],
      "name": "InvalidDestinationChain",
      "type": "error"
    },
    {
      "inputs": [],
      "name": "InvalidDstChainData",
      "type": "error"
    },
    {
      "inputs": [
        {
          "internalType": "uint24",
          "name": "dstChainSelector",
          "type": "uint24"
        }
      ],
      "name": "InvalidDstChainSelector",
      "type": "error"
    },
    {
      "inputs": [],
      "name": "InvalidMessageType",
      "type": "error"
    },
    {
      "inputs": [],
      "name": "MessageTooLarge",
      "type": "error"
    },
    {
      "inputs": [],
      "name": "NoDeficitToFill",
      "type": "error"
    },
    {
      "inputs": [],
      "name": "NoSurplusToTake",
      "type": "error"
    },
    {
      "inputs": [
        {
          "internalType": "address",
          "name": "target",
          "type": "address"
        }
      ],
      "name": "NotAContract",
      "type": "error"
    },
    {
      "inputs": [
        {
          "internalType": "uint256",
          "name": "remainingLiquidityToCollectForWithdraw",
          "type": "uint256"
        },
        {
          "internalType": "uint256",
          "name": "totalAmountToWithdrawLocked",
          "type": "uint256"
        }
      ],
      "name": "PendingWithdrawalsAreNotReady",
      "type": "error"
    },
    {
      "inputs": [],
      "name": "QueuesAreNotFull",
      "type": "error"
    },
    {
      "inputs": [
        {
          "internalType": "enum IConceroClientErrors.RequiredVariableUnsetType",
          "name": "variableType",
          "type": "uint8"
        }
      ],
      "name": "RequiredVariableUnset",
      "type": "error"
    },
    {
      "inputs": [
        {
          "internalType": "address",
          "name": "token",
          "type": "address"
        }
      ],
      "name": "SafeERC20FailedOperation",
      "type": "error"
    },
    {
      "inputs": [
        {
          "internalType": "address",
          "name": "caller",
          "type": "address"
        },
        {
          "internalType": "address",
          "name": "expected",
          "type": "address"
        }
      ],
      "name": "UnauthorizedCaller",
      "type": "error"
    },
    {
      "inputs": [],
      "name": "UnauthorizedSender",
      "type": "error"
    },
    {
      "inputs": [
        {
          "internalType": "address",
          "name": "caller",
          "type": "address"
        },
        {
          "internalType": "address",
          "name": "expected",
          "type": "address"
        }
      ],
      "name": "UnauthorizedSender",
      "type": "error"
    },
    {
      "inputs": [],
      "name": "UnsupportedFeeTokenType",
      "type": "error"
    },
    {
      "inputs": [],
      "name": "WithdrawalQueueIsFull",
      "type": "error"
    },
    {
      "anonymous": false,
      "inputs": [
        {
          "indexed": false,
          "internalType": "uint256",
          "name": "amount",
          "type": "uint256"
        },
        {
          "indexed": false,
          "internalType": "uint256",
          "name": "iouAmount",
          "type": "uint256"
        }
      ],
      "name": "DeficitFilled",
      "type": "event"
    },
    {
      "anonymous": false,
      "inputs": [
        {
          "indexed": true,
          "internalType": "bytes32",
          "name": "depositId",
          "type": "bytes32"
        },
        {
          "indexed": true,
          "internalType": "address",
          "name": "lp",
          "type": "address"
        },
        {
          "indexed": false,
          "internalType": "uint256",
          "name": "amount",
          "type": "uint256"
        }
      ],
      "name": "DepositQueued",
      "type": "event"
    },
    {
      "anonymous": false,
      "inputs": [
        {
          "indexed": true,
          "internalType": "address",
          "name": "sender",
          "type": "address"
        },
        {
          "indexed": true,
          "internalType": "uint24",
          "name": "dstChainSelector",
          "type": "uint24"
        },
        {
          "indexed": false,
          "internalType": "uint256",
          "name": "amount",
          "type": "uint256"
        },
        {
          "indexed": false,
          "internalType": "bytes32",
          "name": "messageId",
          "type": "bytes32"
        }
      ],
      "name": "IOUBridged",
      "type": "event"
    },
    {
      "anonymous": false,
      "inputs": [
        {
          "indexed": true,
          "internalType": "bytes32",
          "name": "messageId",
          "type": "bytes32"
        },
        {
          "indexed": false,
          "internalType": "uint24",
          "name": "srcChainSelector",
          "type": "uint24"
        },
        {
          "indexed": false,
          "internalType": "address",
          "name": "receiver",
          "type": "address"
        },
        {
          "indexed": false,
          "internalType": "uint256",
          "name": "amount",
          "type": "uint256"
        }
      ],
      "name": "IOUReceived",
      "type": "event"
    },
    {
      "anonymous": false,
      "inputs": [
        {
          "indexed": false,
          "internalType": "uint256",
          "name": "amount",
          "type": "uint256"
        },
        {
          "indexed": false,
          "internalType": "uint256",
          "name": "iouAmount",
          "type": "uint256"
        }
      ],
      "name": "SurplusTaken",
      "type": "event"
    },
    {
      "anonymous": false,
      "inputs": [
        {
          "indexed": true,
          "internalType": "bytes32",
          "name": "withdrawId",
          "type": "bytes32"
        },
        {
          "indexed": true,
          "internalType": "address",
          "name": "lp",
          "type": "address"
        },
        {
          "indexed": false,
          "internalType": "uint256",
          "name": "liqTokenAmount",
          "type": "uint256"
        }
      ],
      "name": "WithdrawQueued",
      "type": "event"
    },
    {
      "inputs": [],
      "name": "BPS_DENOMINATOR",
      "outputs": [
        {
          "internalType": "uint256",
          "name": "",
          "type": "uint256"
        }
      ],
      "stateMutability": "view",
      "type": "function"
    },
    {
      "inputs": [],
      "name": "REBALANCER_PREMIUM_BPS",
      "outputs": [
        {
          "internalType": "uint256",
          "name": "",
          "type": "uint256"
        }
      ],
      "stateMutability": "view",
      "type": "function"
    },
    {
      "inputs": [],
      "name": "areQueuesFull",
      "outputs": [
        {
          "internalType": "bool",
          "name": "",
          "type": "bool"
        }
      ],
      "stateMutability": "view",
      "type": "function"
    },
    {
      "inputs": [
        {
          "internalType": "uint256",
          "name": "iouTokenAmount",
          "type": "uint256"
        },
        {
          "internalType": "uint24",
          "name": "destinationChainSelector",
          "type": "uint24"
        }
      ],
      "name": "bridgeIOU",
      "outputs": [
        {
          "internalType": "bytes32",
          "name": "messageId",
          "type": "bytes32"
        }
      ],
      "stateMutability": "payable",
      "type": "function"
    },
    {
      "inputs": [
        {
          "internalType": "bytes32",
          "name": "messageId",
          "type": "bytes32"
        },
        {
          "internalType": "uint24",
          "name": "srcChainSelector",
          "type": "uint24"
        },
        {
          "internalType": "bytes",
          "name": "sender",
          "type": "bytes"
        },
        {
          "internalType": "bytes",
          "name": "message",
          "type": "bytes"
        }
      ],
      "name": "conceroReceive",
      "outputs": [],
      "stateMutability": "nonpayable",
      "type": "function"
    },
    {
      "inputs": [
        {
          "internalType": "uint256",
          "name": "liquidityTokenAmount",
          "type": "uint256"
        }
      ],
      "name": "enterDepositQueue",
      "outputs": [],
      "stateMutability": "nonpayable",
      "type": "function"
    },
    {
      "inputs": [
        {
          "internalType": "uint256",
          "name": "lpTokenAmount",
          "type": "uint256"
        }
      ],
      "name": "enterWithdrawQueue",
      "outputs": [],
      "stateMutability": "nonpayable",
      "type": "function"
    },
    {
      "inputs": [
        {
          "internalType": "uint256",
          "name": "liquidityAmountToFill",
          "type": "uint256"
        }
      ],
      "name": "fillDeficit",
      "outputs": [
        {
          "internalType": "uint256",
          "name": "iouTokensToMint",
          "type": "uint256"
        }
      ],
      "stateMutability": "nonpayable",
      "type": "function"
    },
    {
      "inputs": [],
      "name": "getActiveBalance",
      "outputs": [
        {
          "internalType": "uint256",
          "name": "",
          "type": "uint256"
        }
      ],
      "stateMutability": "view",
      "type": "function"
    },
    {
      "inputs": [],
      "name": "getDeficit",
      "outputs": [
        {
          "internalType": "uint256",
          "name": "deficit",
          "type": "uint256"
        }
      ],
      "stateMutability": "view",
      "type": "function"
    },
    {
      "inputs": [],
      "name": "getIOUToken",
      "outputs": [
        {
          "internalType": "address",
          "name": "",
          "type": "address"
        }
      ],
      "stateMutability": "view",
      "type": "function"
    },
    {
      "inputs": [
        {
          "internalType": "uint24",
          "name": "destinationChainSelector",
          "type": "uint24"
        },
        {
          "internalType": "address",
          "name": "destinationPoolAddress",
          "type": "address"
        },
        {
          "internalType": "uint256",
          "name": "gasLimitForExecution",
          "type": "uint256"
        }
      ],
      "name": "getMessageFee",
      "outputs": [
        {
          "internalType": "uint256",
          "name": "crossChainMessageFee",
          "type": "uint256"
        }
      ],
      "stateMutability": "view",
      "type": "function"
    },
    {
      "inputs": [],
      "name": "getPoolData",
      "outputs": [
        {
          "internalType": "uint256",
          "name": "deficit",
          "type": "uint256"
        },
        {
          "internalType": "uint256",
          "name": "surplus",
          "type": "uint256"
        }
      ],
      "stateMutability": "view",
      "type": "function"
    },
    {
      "inputs": [
        {
          "internalType": "uint256",
          "name": "amount",
          "type": "uint256"
        }
      ],
      "name": "getRebalancerFee",
      "outputs": [
        {
          "internalType": "uint256",
          "name": "",
          "type": "uint256"
        }
      ],
      "stateMutability": "pure",
      "type": "function"
    },
    {
      "inputs": [],
      "name": "getSupportedChainSelectors",
      "outputs": [
        {
          "internalType": "uint24[]",
          "name": "",
          "type": "uint24[]"
        }
      ],
      "stateMutability": "view",
      "type": "function"
    },
    {
      "inputs": [],
      "name": "getSurplus",
      "outputs": [
        {
          "internalType": "uint256",
          "name": "",
          "type": "uint256"
        }
      ],
      "stateMutability": "view",
      "type": "function"
    },
    {
      "inputs": [],
      "name": "getTargetBalance",
      "outputs": [
        {
          "internalType": "uint256",
          "name": "",
          "type": "uint256"
        }
      ],
      "stateMutability": "view",
      "type": "function"
    },
    {
      "inputs": [],
      "name": "getTodayStartTimestamp",
      "outputs": [
        {
          "internalType": "uint32",
          "name": "",
          "type": "uint32"
        }
      ],
      "stateMutability": "view",
      "type": "function"
    },
    {
      "inputs": [
        {
          "internalType": "uint256",
          "name": "amount",
          "type": "uint256"
        }
      ],
      "name": "getWithdrawalFee",
      "outputs": [
        {
          "internalType": "uint256",
          "name": "",
          "type": "uint256"
        },
        {
          "internalType": "uint256",
          "name": "",
          "type": "uint256"
        }
      ],
      "stateMutability": "view",
      "type": "function"
    },
    {
      "inputs": [],
      "name": "getYesterdayFlow",
      "outputs": [
        {
          "components": [
            {
              "internalType": "uint256",
              "name": "inflow",
              "type": "uint256"
            },
            {
              "internalType": "uint256",
              "name": "outflow",
              "type": "uint256"
            }
          ],
          "internalType": "struct IPoolBase.LiqTokenDailyFlow",
          "name": "",
          "type": "tuple"
        }
      ],
      "stateMutability": "view",
      "type": "function"
    },
    {
      "inputs": [],
      "name": "getYesterdayStartTimestamp",
      "outputs": [
        {
          "internalType": "uint32",
          "name": "",
          "type": "uint32"
        }
      ],
      "stateMutability": "view",
      "type": "function"
    },
    {
      "inputs": [],
      "name": "isReadyToProcessPendingWithdrawals",
      "outputs": [
        {
          "internalType": "bool",
          "name": "",
          "type": "bool"
        }
      ],
      "stateMutability": "view",
      "type": "function"
    },
    {
      "inputs": [],
      "name": "isReadyToTriggerDepositWithdrawProcess",
      "outputs": [
        {
          "internalType": "bool",
          "name": "",
          "type": "bool"
        }
      ],
      "stateMutability": "view",
      "type": "function"
    },
    {
      "inputs": [],
      "name": "processPendingWithdrawals",
      "outputs": [],
      "stateMutability": "nonpayable",
      "type": "function"
    },
    {
      "inputs": [
        {
          "internalType": "uint256",
          "name": "iouTokensToBurn",
          "type": "uint256"
        }
      ],
      "name": "takeSurplus",
      "outputs": [
        {
          "internalType": "uint256",
          "name": "liquidityTokensToReceive",
          "type": "uint256"
        }
      ],
      "stateMutability": "nonpayable",
      "type": "function"
    },
    {
      "inputs": [],
      "name": "triggerDepositWithdrawProcess",
      "outputs": [],
      "stateMutability": "payable",
      "type": "function"
    },
    {
      "stateMutability": "payable",
      "type": "receive"
    }
  ],
  "bytecode": "0x61012060405234801561001157600080fd5b50604051613642380380613642833981016040819052610030916100d9565b808684878582806001600160a01b03811661006e5760405163593edec360e01b81526001600160a01b03909116600482015260240160405180910390fd5b506001600160a01b0390811660805293841660a05260ff9190911660c0526000805462ffffff191662ffffff9092169190911790555090811660e05293909316610100525061015f9350505050565b80516001600160a01b03811681146100d457600080fd5b919050565b60008060008060008060c087890312156100f257600080fd5b6100fb876100bd565b9550602087015160ff8116811461011157600080fd5b945061011f604088016100bd565b935061012d606088016100bd565b9250608087015162ffffff8116811461014557600080fd5b915061015360a088016100bd565b90509295509295509295565b60805160a05160c05160e0516101005161341a61022860003960008181610d17015281816110fb01528181611c740152818161245101526125410152600081816101de01528181610b95015281816112ed0152818161157d01526122f4015260008181612b7701528181612ba601528181612cc10152612cf901526000818161078701528181610c060152818161119a015281816115140152611777015260008181610514015281816106b2015281816113d701528181612a320152612aee015261341a6000f3fe6080604052600436106101855760003560e01c806391cf4501116100d1578063e170f48e1161008a578063eb175b7e11610064578063eb175b7e14610424578063f992616614610439578063fb29238b14610459578063fc3d3f381461048357600080fd5b8063e170f48e146103db578063e1a45218146103ee578063e67b9abe1461040457600080fd5b806391cf4501146103375780639aa076fc1461034c578063ae1065c414610361578063bbb2829914610381578063d918886d14610396578063daeeb55f146103c657600080fd5b80634e30f4eb1161013e5780636787f36d116101185780636787f36d146102d05780636788a715146102fa5780637813a156146103025780637e7725d21461031757600080fd5b80634e30f4eb146102795780634eae7f84146102995780635f09323d146102ae57600080fd5b806303b12086146101915780630dda4dc2146101c45780632383b074146102085780632ef493751461021d57806340cad85e14610232578063424ad82c1461025757600080fd5b3661018c57005b600080fd5b34801561019d57600080fd5b506101b16101ac366004612e29565b6104a3565b6040519081526020015b60405180910390f35b3480156101d057600080fd5b506040516001600160a01b037f00000000000000000000000000000000000000000000000000000000000000001681526020016101bb565b34801561021457600080fd5b506101b161060d565b34801561022957600080fd5b506101b1610647565b34801561023e57600080fd5b50610247610680565b60405190151581526020016101bb565b34801561026357600080fd5b50610277610272366004612eb1565b6106a7565b005b34801561028557600080fd5b50610277610294366004612f40565b610719565b3480156102a557600080fd5b506102476108e9565b3480156102ba57600080fd5b506102c3610931565b6040516101bb9190612f59565b3480156102dc57600080fd5b506102e56109bc565b60405163ffffffff90911681526020016101bb565b6102776109d0565b34801561030e57600080fd5b506102e5610b02565b34801561032357600080fd5b506101b1610332366004612f40565b610b18565b34801561034357600080fd5b506101b1610c70565b34801561035857600080fd5b506101b1600a81565b34801561036d57600080fd5b5061027761037c366004612f40565b610ca9565b34801561038d57600080fd5b50610247610e41565b3480156103a257600080fd5b506103ab610e5f565b604080518251815260209283015192810192909252016101bb565b3480156103d257600080fd5b50610277610ec6565b6101b16103e9366004612f96565b611266565b3480156103fa57600080fd5b506101b161271081565b34801561041057600080fd5b506101b161041f366004612f40565b6114ac565b34801561043057600080fd5b506101b1611618565b34801561044557600080fd5b506101b1610454366004612f40565b611628565b34801561046557600080fd5b5061046e611642565b604080519283526020830191909152016101bb565b34801561048f57600080fd5b5061046e61049e366004612f40565b61165d565b60006001600160a01b0383166104cc5760405163162908e360e11b815260040160405180910390fd5b600082116104ed5760405163162908e360e11b815260040160405180910390fd5b60006040518060400160405280856001600160a01b031681526020018481525090506000807f00000000000000000000000000000000000000000000000000000000000000006001600160a01b031687600080866040516024016105549493929190612fc2565b60408051601f198184030181529181526020820180516001600160e01b031663e45700ff60e01b179052516105899190613029565b600060405180830381855afa9150503d80600081146105c4576040519150601f19603f3d011682016040523d82523d6000602084013e6105c9565b606091505b5091509150816105ec57604051631cc185e760e31b815260040160405180910390fd5b808060200190518101906106009190613045565b93505050505b9392505050565b600080610618610647565b90506000610624611618565b90508082116106365760009250505090565b6106408183613074565b9250505090565b6000806106526116c7565b905080600e01548160020154610666611741565b6106709190613074565b61067a9190613074565b91505090565b60008061068b6116c7565b905080600f0154600014801561067a5750600e01541515919050565b336001600160a01b037f00000000000000000000000000000000000000000000000000000000000000001681146107025760405163593edec360e01b81526001600160a01b0390911660048201526024015b60405180910390fd5b506107118686868686866117fe565b505050505050565b6000811161073a5760405163203332b360e01b815260040160405180910390fd5b60006107446116c7565b60118101546003820154919250600160b01b900461ffff161161077a576040516335273b6160e11b815260040160405180910390fd5b6107af6001600160a01b037f000000000000000000000000000000000000000000000000000000000000000016333085611905565b60006040518060400160405280848152602001336001600160a01b031681525090506000334384600501600081546107e690613087565b918290555060405160609390931b6bffffffffffffffffffffffff191660208401526034830191909152605482015260740160408051808303601f19018152918152815160209283012060008181528684529182208551815585840151600191820180546001600160a01b0319166001600160a01b039092169190911790556003870180549182018155835292822090920182905560028501805492935086929091906108949084906130a0565b9250508190555081602001516001600160a01b0316817f85c9abbd1677b950ff0b0aa59c7e9cd485639ea497f2d5f439ca55d51e9cd95a866040516108db91815260200190565b60405180910390a350505050565b6000806108f46116c7565b60118101546004820154919250600160a01b900461ffff1614801561067a57506011810154600390910154600160b01b90910461ffff1614919050565b606061093b6116c7565b6007018054806020026020016040519081016040528092919081815260200182805480156109b257602002820191906000526020600020906000905b82829054906101000a900462ffffff1662ffffff16815260200190600301906020826002010492830192600103820291508084116109775790505b5050505050905090565b60006109cb62015180426130c9565b905090565b6109d86116c7565b601101546001600160a01b031633908114906109f26116c7565b6011015490916001600160a01b0390911690610a345760405163536dd9ef60e01b81526001600160a01b039283166004820152911660248201526044016106f9565b5050610a3e6108e9565b610a5b5760405163c1c84c0b60e01b815260040160405180910390fd5b600080610a66611972565b9150915081610a8857604051632f38ee0d60e21b815260040160405180910390fd5b6000610a926116c7565b90506000610a9f83611acf565b90506000610aac84611d2f565b90506000610ab8610647565b610ac290866130a0565b905060008285600f0154610ad691906130a0565b905080841015610aef57610aea8282611f98565b610af9565b610af98282612124565b50505050505050565b60006001610b0e6109bc565b6109cb91906130f1565b6000808211610b3a5760405163162908e360e11b815260040160405180910390fd5b6000610b4461060d565b905060008111610b675760405163650ef7f160e01b815260040160405180910390fd5b8291508181811115610b795750905080805b60405163079cc67960e41b8152336004820152602481018290527f00000000000000000000000000000000000000000000000000000000000000006001600160a01b0316906379cc679090604401600060405180830381600087803b158015610be157600080fd5b505af1158015610bf5573d6000803e3d6000fd5b50610c2f9250506001600160a01b037f0000000000000000000000000000000000000000000000000000000000000000169050338561223c565b60408051848152602081018390527fc33e79ca9397264ebe240c493b0dd12b66d5ad8ae896769f1e1aa09dab1e137191015b60405180910390a15050919050565b600080610c7b611618565b90506000610c87610647565b905081811015610ca057610c9b8183613074565b610640565b60009250505090565b60008111610cca5760405163203332b360e01b815260040160405180910390fd5b6000610cd46116c7565b60118101546004820154919250600160a01b900461ffff1611610d0a576040516329ab697960e01b815260040160405180910390fd5b610d3f6001600160a01b037f000000000000000000000000000000000000000000000000000000000000000016333085611905565b60006040518060400160405280848152602001336001600160a01b03168152509050600033438460060160008154610d7690613087565b918290555060405160609390931b6bffffffffffffffffffffffff191660208401526034830191909152605482015260740160408051808303601f19018152828252805160209182012060008181526001888101845293812087518155878401805191860180546001600160a01b0319166001600160a01b0393841617905560048a0180549687018155835291849020909401829055518885529094509091169183917fda0d0d34aab4b5b53d995ecd670d9c5db5de17afd9b78d57cb845a0668d7dc7991016108db565b600080610e4c611972565b50905080801561067a575061067a6108e9565b6040805180820190915260008082526020820152610e7b612272565b6002016000610e88610b02565b63ffffffff1663ffffffff16815260200190815260200160002060405180604001604052908160008201548152602001600182015481525050905090565b610ece6116c7565b601101546001600160a01b03163390811490610ee86116c7565b6011015490916001600160a01b0390911690610f2a5760405163536dd9ef60e01b81526001600160a01b039283166004820152911660248201526044016106f9565b50506000610f366116c7565b9050610f40610680565b81600f015482600e01549091610f7257604051636524c1ff60e11b8152600481019290925260248201526044016106f9565b5050600081600a01805480602002602001604051908101604052809291908181526020018280548015610fc457602002820191906000526020600020905b815481526020019060010190808311610fb0575b50505050509050610ff86040518060600160405280600081526020016000815260200160006001600160a01b031681525090565b6000806000805b85518110156111f35786600b0160008783815181106110205761102061310d565b6020026020010151815260200190815260200160002060405180606001604052908160008201548152602001600182015481526020016002820160009054906101000a90046001600160a01b03166001600160a01b03166001600160a01b031681525050945086600b01600087838151811061109e5761109e61310d565b60209081029190910181015182528181019290925260409081016000908120818155600181019190915560020180546001600160a01b0319169055908601519051630852cd8d60e31b815260048101919091526001600160a01b037f000000000000000000000000000000000000000000000000000000000000000016906342966c6890602401600060405180830381600087803b15801561113f57600080fd5b505af1158015611153573d6000803e3d6000fd5b50505050600080611167876000015161165d565b9092509050600061117882846130a0565b88516111849190613074565b60408901519091506111c1906001600160a01b037f000000000000000000000000000000000000000000000000000000000000000016908361223c565b6111cb81886130a0565b96506111d783876130a0565b95506111e382866130a0565b9450505050806001019050610fff565b50611202600a87016000612dc2565b8286600e0160008282546112169190613074565b925050819055508186601001600082825461123191906130a0565b909155508190506000805160206133c5833981519152600101600082825461125991906130a0565b9091555050505050505050565b60008083116112885760405163162908e360e11b815260040160405180910390fd5b62ffffff821660009081526000805160206133c583398151915260205260409020546001600160a01b0316806112d15760405163b86ac1ef60e01b815260040160405180910390fd5b60405163079cc67960e41b8152336004820152602481018590527f00000000000000000000000000000000000000000000000000000000000000006001600160a01b0316906379cc679090604401600060405180830381600087803b15801561133957600080fd5b505af115801561134d573d6000803e3d6000fd5b50505050600084336040516020016113789291909182526001600160a01b0316602082015260400190565b60405160208183030381529060405290506000808260405160200161139e929190613183565b60408051601f1981840301815282820182526001600160a01b038087168452620493e060208501529151631999b75760e21b81529093507f000000000000000000000000000000000000000000000000000000000000000090911690636666dd5c903490611419908a90600090819088908a906004016131a5565b60206040518083038185885af1158015611437573d6000803e3d6000fd5b50505050506040513d601f19601f8201168201806040525081019061145c9190613045565b604080518981526020810183905291965062ffffff88169133917f7cdaf37c0ad0d8ed400b95bfa52751eba63a7516120145d4ac140d00a7dfc7e7910160405180910390a3505050505b92915050565b60008082116114ce5760405163162908e360e11b815260040160405180910390fd5b60006114d8610c70565b9050600081116114fb57604051633483163160e11b815260040160405180910390fd5b82818111156115075750805b61153c6001600160a01b037f000000000000000000000000000000000000000000000000000000000000000016333084611905565b61271061154a600a826130a0565b61155490836131fa565b61155e9190613211565b6040516340c10f1960e01b8152336004820152602481018290529093507f00000000000000000000000000000000000000000000000000000000000000006001600160a01b0316906340c10f1990604401600060405180830381600087803b1580156115c957600080fd5b505af11580156115dd573d6000803e3d6000fd5b505060408051848152602081018790527f5421162aeffad1e043036db6af277641817f5c94cd75b2cbc9c0c10b7b58344d9350019050610c61565b6000611622612272565b54919050565b6000612710611638600a846131fa565b6114a69190613211565b60008061164d610c70565b915061165761060d565b90509091565b600080600061166a6116c7565b600a81015490915060009061167d610931565b51601284015461169b91906bffffffffffffffffffffffff166131fa565b6116a69060046131fa565b6116b09190613211565b9050806116bc86611628565b935093505050915091565b604051691c185c995b9d141bdbdb60b21b6020820152600090819060ff1990600190602a015b6040516020818303038152906040528051906020012060001c6117109190613074565b60405160200161172291815260200190565b60408051601f1981840301815291905280516020909101201692915050565b600061174b612272565b600101546000805160206133c5833981519152600101546040516370a0823160e01b81523060048201527f00000000000000000000000000000000000000000000000000000000000000006001600160a01b0316906370a0823190602401602060405180830381865afa1580156117c6573d6000803e3d6000fd5b505050506040513d601f19601f820116820180604052508101906117ea9190613045565b6117f49190613074565b6109cb9190613074565b600061180c84860186613225565b9050806001600160a01b0316611820612272565b62ffffff8816600090815260039190910160205260409020546001600160a01b0316148161184c612272565b62ffffff89166000908152600391909101602052604090205490916001600160a01b03909116906118a3576040516385faaab560e01b81526001600160a01b039283166004820152911660248201526044016106f9565b5060009050806118b584860186613258565b909250905060008280156118cb576118cb613123565b036118e1576118dc8989878761229a565b6118fa565b604051635b60892f60e01b815260040160405180910390fd5b505050505050505050565b6040516001600160a01b03848116602483015283811660448301526064820183905261196c9186918216906323b872dd906084015b604051602081830303815290604052915060e01b6020820180516001600160e01b0383818316178352505050506123a8565b50505050565b600080600061197f6116c7565b90506000816007018054806020026020016040519081016040528092919081815260200182805480156119fb57602002820191906000526020600020906000905b82829054906101000a900462ffffff1662ffffff16815260200190600301906020826002010492830192600103820291508084116119c05790505b505050505090506000805b8251811015611ac2576000846008016000858481518110611a2957611a2961310d565b60209081029190910181015162ffffff1682528101919091526040016000206003015463ffffffff169050611a5d81612419565b611a705750600096879650945050505050565b846008016000858481518110611a8857611a8861310d565b602002602001015162ffffff1662ffffff1681526020019081526020016000206000015483611ab791906130a0565b925050600101611a06565b5060019590945092505050565b600080611ada6116c7565b9050600081600301805480602002602001604051908101604052809291908181526020018280548015611b2c57602002820191906000526020600020905b815481526020019060010190808311611b18575b5050505050905060008060008060005b8551811015611ced576000876000016000888481518110611b5f57611b5f61310d565b60209081029190910181015182528181019290925260409081016000908120825180840190935280548352600101546001600160a01b0316928201929092528851909250899190899085908110611bb857611bb861310d565b6020908102919091018101518252810191909152604001600090812090815560010180546001600160a01b03191690558051611bf390611628565b8151909450611c03908590613074565b9450611c0f84846130a0565b92506000611c2e611c1e610647565b611c28908d6130a0565b8761244c565b905085896002016000828254611c449190613074565b909155505060208201516040516340c10f1960e01b81526001600160a01b039182166004820152602481018390527f0000000000000000000000000000000000000000000000000000000000000000909116906340c10f1990604401600060405180830381600087803b158015611cba57600080fd5b505af1158015611cce573d6000803e3d6000fd5b505050508587611cde91906130a0565b96505050806001019050611b3c565b50611cfc600387016000612dc2565b806000805160206133c58339815191526001016000828254611d1e91906130a0565b909155509398975050505050505050565b600080611d3a6116c7565b9050600081600401805480602002602001604051908101604052809291908181526020018280548015611d8c57602002820191906000526020600020905b815481526020019060010190808311611d78575b50505050509050600080611dbc60405180604001604052806000815260200160006001600160a01b031681525090565b60005b8451811015611f7e57856001016000868381518110611de057611de061310d565b60200260200101518152602001908152602001600020604051806040016040529081600082015481526020016001820160009054906101000a90046001600160a01b03166001600160a01b03166001600160a01b0316815250509150856001016000868381518110611e5457611e5461310d565b6020908102919091018101518252810191909152604001600090812090815560010180546001600160a01b03191690558151611e91908990612525565b9250611e9d83856130a0565b935060405180606001604052808481526020018360000151815260200183602001516001600160a01b031681525086600b016000878481518110611ee357611ee361310d565b60200260200101518152602001908152602001600020600082015181600001556020820151816001015560408201518160020160006101000a8154816001600160a01b0302191690836001600160a01b0316021790555090505085600a01858281518110611f5357611f5361310d565b6020908102919091018101518254600181810185556000948552929093209092019190915501611dbf565b50611f8d600486016000612dc2565b509095945050505050565b6000611fa261060d565b9050600082821015611fb45781611fb6565b825b90506000611fc26116c7565b9050600080611fd9611fd48589613074565b6125ec565b9150915060005b825181101561211a57600054835162ffffff909116908490839081106120085761200861310d565b602002602001015162ffffff16146120a05761205683828151811061202f5761202f61310d565b60200260200101518383815181106120495761204961310d565b6020026020010151612979565b83600801600084838151811061206e5761206e61310d565b60209081029190910181015162ffffff168252810191909152604001600020600301805463ffffffff19169055612112565b60006120ac8689613074565b90508585600e0160008282546120c291906130a0565b9091555050600f850181905582518390839081106120e2576120e261310d565b60200260200101518560130181905550806120fb612272565b805460009061210b9084906130a0565b9091555050505b600101611fe0565b5050505050505050565b600061212e6116c7565b905060008061213c856125ec565b915091508383600e01600082825461215491906130a0565b90915550506000600f84018190555b825181101561071157600054835162ffffff9091169084908390811061218b5761218b61310d565b602002602001015162ffffff16146121fc576121b283828151811061202f5761202f61310d565b8360080160008483815181106121ca576121ca61310d565b60209081029190910181015162ffffff168252810191909152604001600020600301805463ffffffff19169055612234565b81818151811061220e5761220e61310d565b602002602001015161221e612272565b805460009061222e9084906130a0565b90915550505b600101612163565b6040516001600160a01b0383811660248301526044820183905261226d91859182169063a9059cbb9060640161193a565b505050565b60405167706f6f6c4261736560c01b6020820152600090819060ff19906001906028016116ed565b6000806122a983850185613328565b91509150600082116122ce5760405163162908e360e11b815260040160405180910390fd5b6040516340c10f1960e01b81526001600160a01b038281166004830152602482018490527f000000000000000000000000000000000000000000000000000000000000000016906340c10f1990604401600060405180830381600087803b15801561233857600080fd5b505af115801561234c573d6000803e3d6000fd5b50506040805162ffffff891681526001600160a01b03851660208201529081018590528892507f37e3322502e947a84ebf362958eea009a11efb51e73ef2f191cbe4b216790b3b915060600160405180910390a2505050505050565b600080602060008451602086016000885af1806123cb576040513d6000823e3d81fd5b50506000513d915081156123e35780600114156123f0565b6001600160a01b0384163b155b1561196c57604051635274afe760e01b81526001600160a01b03851660048201526024016106f9565b6000428263ffffffff16111561243157506000919050565b61070861244463ffffffff841642613074565b111592915050565b6000807f00000000000000000000000000000000000000000000000000000000000000006001600160a01b03166318160ddd6040518163ffffffff1660e01b8152600401602060405180830381865afa1580156124ad573d6000803e3d6000fd5b505050506040513d601f19601f820116820180604052508101906124d19190613045565b9050806000036124ec576124e483612b71565b9150506114a6565b60006124f785612b71565b9050600061250485612b71565b90508161251182856131fa565b61251b9190613211565b9695505050505050565b600080612530610647565b61253a90856130a0565b90506125e47f00000000000000000000000000000000000000000000000000000000000000006001600160a01b03166318160ddd6040518163ffffffff1660e01b8152600401602060405180830381865afa15801561259d573d6000803e3d6000fd5b505050506040513d601f19601f820116820180604052508101906125c19190613045565b846125cb84612b71565b6125d591906131fa565b6125df9190613211565b612bd1565b949350505050565b60608060006125f96116c7565b90506000612605610931565b905060008151600161261791906130a0565b67ffffffffffffffff81111561262f5761262f613242565b604051908082528060200260200182016040528015612658578160200160208202803683370190505b5090506000815167ffffffffffffffff81111561267757612677613242565b6040519080825280602002602001820160405280156126a0578160200160208202803683370190505b5090506126c0604051806040016040528060008152602001600081525090565b6000805484518291829162ffffff9091169087906126e090600190613074565b815181106126f0576126f061310d565b602002602001019062ffffff16908162ffffff168152505060005b8751811015612861578781815181106127265761272661310d565b60200260200101518782815181106127405761274061310d565b602002602001019062ffffff16908162ffffff16815250508860080160008983815181106127705761277061310d565b602002602001015162ffffff1662ffffff1681526020019081526020016000206001016040518060400160405290816000820154815260200160018201548152505094508860090160008983815181106127cc576127cc61310d565b602002602001015162ffffff1662ffffff16815260200190815260200160002054935083836127fb91906130a0565b92506128078585612bde565b6128149060ff16856131fa565b8682815181106128265761282661310d565b6020026020010181815250508581815181106128445761284461310d565b60200260200101518261285791906130a0565b915060010161270b565b5061286a612c7b565b85600187516128799190613074565b815181106128895761288961310d565b60200260200101818152505084600186516128a49190613074565b815181106128b4576128b461310d565b6020026020010151816128c791906130a0565b90506000865167ffffffffffffffff8111156128e5576128e5613242565b60405190808252806020026020018201604052801561290e578160200160208202803683370190505b50905060005b8151811015612966576129418782815181106129325761293261310d565b6020026020010151848f612ca6565b8282815181106129535761295361310d565b6020908102919091010152600101612914565b50959b959a509498505050505050505050565b60006129836116c7565b62ffffff841660009081526009820160205260409020549091508290036129a957505050565b62ffffff831660009081526009820160209081526040808320859055600d84019091529020546001600160a01b031683816129ff57604051630775dd4160e21b815262ffffff90911660048201526024016106f9565b506040805180820182526001600160a01b038084168252620186a06020830152915163e45700ff60e01b815290916000917f00000000000000000000000000000000000000000000000000000000000000009091169063e45700ff90612a6f908990859081908890600401612fc2565b602060405180830381865afa158015612a8c573d6000803e3d6000fd5b505050506040513d601f19601f82011682018060405250810190612ab09190613045565b905060008086604051602001612ac7929190613358565b60408051601f1981840301815290829052631999b75760e21b825291506001600160a01b037f00000000000000000000000000000000000000000000000000000000000000001690636666dd5c908490612b2e908b9060009081908a9089906004016131a5565b60206040518083038185885af1158015612b4c573d6000803e3d6000fd5b50505050506040513d601f19601f8201168201806040525081019061211a9190613045565b600060ff7f000000000000000000000000000000000000000000000000000000000000000016601003612ba2575090565b60ff7f0000000000000000000000000000000000000000000000000000000000000000166116386010846131fa565b60006114a6826010612cbd565b600080612bf48460000151856020015185612d30565b90506000612c0b8560000151866020015186612d82565b90506000612c176116c7565b600c810154909150600090612c3690849062010000900460ff1661336f565b600c830154612c4e908690610100900460ff1661336f565b612c589190613392565b9050612c658160016133ab565b612c70906001613392565b979650505050505050565b600080612c86611618565b9050612c99612c93610e5f565b82612bde565b61067a9060ff16826131fa565b600082612cb383866131fa565b6125e49190613211565b60007f000000000000000000000000000000000000000000000000000000000000000060ff168260ff1603612cf35750816114a6565b8160ff167f000000000000000000000000000000000000000000000000000000000000000060ff1684612d2691906131fa565b6106069190613211565b60008082612d3e85876130a0565b612d489190613211565b905080612d536116c7565b600c0154612d64919060ff166130a0565b612d6e9082613211565b612d79906001613074565b95945050505050565b60008284101580612d91575081155b15612d9e57506001610606565b600082612dab8686613074565b612db59190613211565b9050612d79816001613074565b5080546000825590600052602060002090810190612de09190612de3565b50565b5b80821115612df85760008155600101612de4565b5090565b803562ffffff81168114612e0f57600080fd5b919050565b6001600160a01b0381168114612de057600080fd5b600080600060608486031215612e3e57600080fd5b612e4784612dfc565b92506020840135612e5781612e14565b929592945050506040919091013590565b60008083601f840112612e7a57600080fd5b50813567ffffffffffffffff811115612e9257600080fd5b602083019150836020828501011115612eaa57600080fd5b9250929050565b60008060008060008060808789031215612eca57600080fd5b86359550612eda60208801612dfc565b9450604087013567ffffffffffffffff811115612ef657600080fd5b612f0289828a01612e68565b909550935050606087013567ffffffffffffffff811115612f2257600080fd5b612f2e89828a01612e68565b979a9699509497509295939492505050565b600060208284031215612f5257600080fd5b5035919050565b602080825282518282018190526000918401906040840190835b81811015611f8d57835162ffffff16835260209384019390920191600101612f73565b60008060408385031215612fa957600080fd5b82359150612fb960208401612dfc565b90509250929050565b62ffffff8516815283151560208201526001600160a01b038316604082015260a08101612d79606083018480516001600160a01b03168252602090810151910152565b60005b83811015613020578181015183820152602001613008565b50506000910152565b6000825161303b818460208701613005565b9190910192915050565b60006020828403121561305757600080fd5b5051919050565b634e487b7160e01b600052601160045260246000fd5b818103818111156114a6576114a661305e565b6000600182016130995761309961305e565b5060010190565b808201808211156114a6576114a661305e565b634e487b7160e01b600052601260045260246000fd5b600063ffffffff8316806130df576130df6130b3565b8063ffffffff84160491505092915050565b63ffffffff82811682821603908111156114a6576114a661305e565b634e487b7160e01b600052603260045260246000fd5b634e487b7160e01b600052602160045260246000fd5b60018110612de057634e487b7160e01b600052602160045260246000fd5b6000815180845261316f816020860160208601613005565b601f01601f19169290920160200192915050565b61318c83613139565b8281526040602082015260006125e46040830184613157565b62ffffff8616815284151560208201526001600160a01b03841660408201526131e4606082018480516001600160a01b03168252602090810151910152565b60c060a08201526000612c7060c0830184613157565b80820281158282048414176114a6576114a661305e565b600082613220576132206130b3565b500490565b60006020828403121561323757600080fd5b813561060681612e14565b634e487b7160e01b600052604160045260246000fd5b6000806040838503121561326b57600080fd5b82356001811061327a57600080fd5b9150602083013567ffffffffffffffff81111561329657600080fd5b8301601f810185136132a757600080fd5b803567ffffffffffffffff8111156132c1576132c1613242565b604051601f8201601f19908116603f0116810167ffffffffffffffff811182821017156132f0576132f0613242565b60405281815282820160200187101561330857600080fd5b816020840160208301376000602083830101528093505050509250929050565b6000806040838503121561333b57600080fd5b82359150602083013561334d81612e14565b809150509250929050565b6040810161336584613139565b9281526020015290565b60ff818116838216029081169081811461338b5761338b61305e565b5092915050565b60ff81811683821601908111156114a6576114a661305e565b60ff82811682821603908111156114a6576114a661305e56fedd1ad270084ea5e9579375a266975b00f1dbdd24c0405974f45724b3c9ffd5f3a2646970667358221220a5a28b027537318991536edaf202877875e61a787eb4d1eb4d62e76ae090d4e664736f6c634300081c0033",
  "linkReferences": {},
  "deployedLinkReferences": {}
}